:020000040800F2
:1000000000000220814A00084D3800084F380008DF
:100010005138000853380008553800080000000027
:100020000000000000000000000000005147000830
:100030005738000800000000F14700085938000850
:10004000D14A0008D14A0008D14A0008D14A000824
:10005000D14A0008D14A0008D14A0008D14A000814
:10006000D14A0008D14A0008D14A0008D14A000804
:10007000D14A0008D14A0008D14A0008D14A0008F4
:10008000D14A0008D14A0008D14A0008D14A0008E4
:10009000D14A0008D14A0008D14A0008D14A0008D4
:1000A000D14A0008D14A0008D14A0008D14A0008C4
:1000B000D14A0008D14A0008D14A0008D14A0008B4
:1000C000D14A0008D14A0008D14A0008D14A0008A4
:1000D000D14A0008D14A0008D14A0008D14A000894
:1000E000D14A0008D14A0008D14A0008D14A000884
:1000F000D14A0008D14A0008D14A0008D14A000874
:10010000D14A0008D14A0008D14A0008D14A000863
:10011000D14A0008D14A0008D14A0008D14A000853
:10012000D14A0008D14A0008D14A0008D14A000843
:10013000D14A0008D14A0008D14A0008D14A000833
:10014000D14A0008D14A0008D14A0008D14A000823
:10015000D14A0008D14A0008D14A0008D14A000813
:10016000D14A0008D14A0008D14A0008D14A000803
:10017000D14A0008D14A0008D14A00080000000016
:08018000D14A0008D14A000831
:1001C000044B05481B1A062B02D9044B03B11847F0
:1001D000704700BF570800205408002000000000AE
:1001E00005490648091A891001EBD171491002D05E
:1001F000034B03B1184770475408002054080020EF
:100200000000000010B5064C237843B9FFF7D8FF73
:10021000044B13B10448AFF300800123237010BDD9
:100220005408002000000000E84A000808B5084B08
:100230001BB108490848AFF300800848036813B9A8
:10024000BDE80840CCE7064B002BF9D09847F7E70C
:100250000000000058080020E84A00085408002068
:1002600000000000002301461A46184600F056BE62
:1002700038B50A4C0A4D641BA4100AD004F180431F
:10028000013B05EB8305013C55F804399847002CE8
:10029000F9D1BDE8384004F02DBC00BF384C00084F
:1002A000344C000870B50F4E0F4D761BB61018BFBA
:1002B000002405D0013455F8043B9847A642F9D1F3
:1002C0000A4E0B4D761B04F00FFCB61018BF00242D
:1002D00006D0013455F8043B9847A642F9D170BDC9
:1002E00070BD00BF2C4C00082C4C0008344C00089A
:1002F0002C4C0008024B0146186800F00BB800BFF8
:1003000000000020024B0146186800F0A9BE00BFA3
:10031000000000202DE9F04F01F10B06162E83B0EE
:10032000054640F29E8036F0070600F1BD80B142DE
:1003300000F2BA8000F080FBB6F5FC7FC0F08F823F
:10034000730A00F0B880042B00F27D81B30903F139
:10035000390003F1380EC300C14F3B44A3F108013B
:100360005C68A14206D10CE0002A80F2AA80E46811
:10037000A14206D0636823F003039A1B0F2AF3DD22
:1003800070463C69DFF8DCE2744500F0A7816368E1
:1003900023F003039A1B0F2A00F38C81002AC7F86D
:1003A00014E0C7F810E080F29D80B3F5007F80F084
:1003B0005D81DB0803F1010C99107A6857F83C80E5
:1003C000C4F8088001238B4007EBCC0113430839A4
:1003D000E1607B6047F83C40C8F80C408210012483
:1003E00094409C4200F28B801C4206D120F0030016
:1003F00064001C4200F10400FAD007EBC009CC46AF
:100400008046DCF80C309C4507D169E1002A80F277
:100410007781DB689C4500F06381596821F0030116
:100420008A1B0F2AF2DDD3F80CC0D3F808800193A1
:100430009C19284646F0010642F001055E60C8F8A6
:100440000CC0CCF808807C613C61C4F80CE0C4F8B6
:1004500008E065605A5000F0F1FA019B03F10804CE
:100460001EE0102920D800F0E7FA102618230220F9
:100470007B4F3B44A3F108025C68944200F0398151
:100480006368E168A66823F00303234428465A689A
:10049000F16042F001028E605A6000F0CFFA083439
:1004A000204603B0BDE8F08F00240C2320462B60CB
:1004B00003B0BDE8F08F40204FF400734FF03F0EC3
:1004C0004AE72344E1685A68A66842F00102F160F5
:1004D00028468E605A6000F0B1FA0834204603B016
:1004E000BDE8F08F234428465A6842F001025A6062
:1004F00000F0A4FA0834204603B0BDE8F08FBC68D1
:10050000636823F00309B14504D3A9EB06030F2B5D
:1005100000F38980DFF850A1D7F80824DAF800301A
:10052000013204EB090B06EB030800F0508108F5DB
:10053000805808F10F0828F47F6828F00F0841461A
:10054000284600F07DFA421C034600F0F680834501
:1005500000F2F180DAF804204244CAF8042000F0E6
:100560004781D7F8081401311BBFA3EB0B0B5A448A
:10057000C7F80834CAF8042013F0070200F00D8110
:10058000C2F10801C2F580520B4408329844C8F306
:100590000B08A2EB080841462846019300F050FAE8
:1005A000431C019B00F03E81C11A414441F001010E
:1005B000DAF80420BB604244BC425960CAF8042007
:1005C00016D0B9F10F0F40F2F4806168A9F10C0365
:1005D00023F00703E01801F001014FF0050E194365
:1005E0000F2B6160C0F804E0C0F808E000F212814F
:1005F000DAF82C30BC689A42DAF8303088BFCAF892
:100600002C209A4288BFCAF83020626822F0030288
:100610009642A2EB060301D80F2B04DC284600F01B
:100620000DFA00243CE7A21943F0010346F001064D
:1006300066602846BA60536000F000FA083420462D
:1006400003B0BDE8F08F142B69D9542B00F29B80C6
:10065000330B03F16F0003F16E0EC3007CE600BFA5
:100660003004002038040020700800205A0A042AB0
:100670005BD9142A00F2AE8002F15C01C9005B3242
:1006800007EB010C7958ACF1080C8C4500F0888020
:100690004A6822F00302934273D289688C45F7D1ED
:1006A000DCF80C207B68E260C4F808C09460CCF8E9
:1006B0000C4093E6A11946F0010C42F00106C4F883
:1006C00004C0284679613961C1F80CE0C1F808E03E
:1006D0004E60E25000F0B2F90834E1E67B687DE656
:1006E00008F1010818F0030F0CF1080C7FF489AE33
:1006F0002DE0DC68A34208BF02303FF442AEBFE603
:1007000019441C464A68DB6854F8086F42F001023D
:100710004A602846F3609E6000F090F9C0E603F15D
:100720005C0003F15B0EC30016E69A0902F1390181
:10073000C9003832A4E7BC4254D0BC68626822F0D9
:10074000030265E759F80839994540F0868010F0B2
:10075000030F00F1FF30F5D17B6823EA04037B60CF
:1007600064009C423FF6CBAE002C3FF4C8AE1C4266
:1007700040467FF442AE64001C4200F10400FAD00F
:100780003BE68C468CE7B3F5AA7F15D8F30B03F153
:10079000780003F1770EC300DEE54FF48052F5E6F2
:1007A0007B689210012101FA02F213437B606246DA
:1007B00079E701225A6031E740F25452934223D83C
:1007C000B30C03F17D0003F17C0EC300C4E508F116
:1007D0001008B4E6542A29D81A0B02F16F01C90097
:1007E0006E324DE7DAF804204244CAF80420B8E635
:1007F000CBF30B0100297FF4B4AE09EB0803B96811
:1008000043F001034B60F3E67F204FF47E734FF01B
:100810007E0EA1E504F10801284600F021FCDAF87B
:100820000420E5E601214FF00008C1E6B2F5AA7FF9
:1008300005D8DA0B02F17801C900773220E740F2DF
:1008400054518A4205D89A0C02F17D01C9007C32CC
:1008500016E74FF47E717E2212E77B6880E7F0088E
:1008600006F1080304E600BF844641EA000313F0E2
:1008700003036DD1403A41D351F8043B40F8043BA7
:1008800051F8043B40F8043B51F8043B40F8043B6A
:1008900051F8043B40F8043B51F8043B40F8043B5A
:1008A00051F8043B40F8043B51F8043B40F8043B4A
:1008B00051F8043B40F8043B51F8043B40F8043B3A
:1008C00051F8043B40F8043B51F8043B40F8043B2A
:1008D00051F8043B40F8043B51F8043B40F8043B1A
:1008E00051F8043B40F8043B51F8043B40F8043B0A
:1008F00051F8043B40F8043B403ABDD2303211D3AA
:1009000051F8043B40F8043B51F8043B40F8043BE9
:1009100051F8043B40F8043B51F8043B40F8043BD9
:10092000103AEDD20C3205D351F8043B40F8043BA9
:10093000043AF9D2043208D0D2071CBF11F8013BA7
:1009400000F8013B01D30B8803806046704700BF6D
:10095000082A13D38B078DD010F003038AD0C3F17C
:100960000403D21ADB071CBF11F8013B00F8013B5E
:1009700080D331F8023B20F8023B7BE7043AD9D31D
:10098000013A11F8013B00F8013BF9D20B780370F2
:100990004B7843708B7883706046704770B48607DD
:1009A00046D0541E002A41D0CAB2034602E014F1D8
:1009B000FF343BD303F8012B9D07F8D1032C2ED92C
:1009C000CDB245EA05250F2C45EA054519D903F1B5
:1009D00010022646103E0F2E42F8105C42F80C5CC6
:1009E00042F8085C42F8045C02F11002F2D8A4F16B
:1009F000100222F00F0204F00F041032032C1344F3
:100A00000DD91E462246043A032A46F8045BFAD85A
:100A1000221F22F003020432134404F003042CB119
:100A2000C9B21C4403F8011B9C42FBD170BC704747
:100A300014460346C2E700BF704700BF704700BFBF
:100A400038B5074C002305460846236001F0DCFD5D
:100A5000431C00D038BD2368002BFBD02B6038BD71
:100A6000904900200000000000000000000000008D
:100A70000000000000000000000000000000000076
:100A8000A2EB0300704700BF02780B78012A28BF51
:100A90009A42F5D16DE9044540EA0104CDE90267C7
:100AA0006FF0000C4FEA447212B380EA010414F0B4
:100AB000070F6AD100F0070420F0070004F00305D7
:100AC00021F007014FEAC505F0E8042314F0040FF4
:100AD000F1E804670CFA05F462EA040266EA040627
:100AE0000AD063EA0403624667EA0407664603E045
:100AF000F0E80423F1E8046782FA4CF582EA060480
:100B0000A4FA8CF46CBB83FA4CF583EA0705A5FACA
:100B10008CF595B950E9022351E9026782FA4CF548
:100B200082EA0604A4FA8CF483FA4CF583EA0705FA
:100B3000A5FA8CF52543DBD09CB92DBAB5FA85F41E
:100B400024F0070427FA04F1DDE9026723FA04F32D
:100B500003F0FF0001F0FF01FDE80445A0EB0100F8
:100B6000704724BAB4FA84F424F0070426FA04F196
:100B7000DDE9026722FA04F202F0FF0001F0FF0152
:100B8000FDE80445A0EB0100704714F0030F3CD1D1
:100B900010F0030428D150F8082B51F8083B82FAD2
:100BA0004CF582EA0305A5FA8CF55DB950F8042CE2
:100BB00051F8043C82FA4CF582EA0305A5FA8CF55B
:100BC000002DE8D02DBAB5FA85F424F0070423FAF5
:100BD00004F122FA04F202F0FF0001F0FF01FDE847
:100BE0000445A0EB010070474FEAC40420F0030065
:100BF00050F8082B21F0030151F8083B0CFA04F4DB
:100C000062EA040263EA0403C9E710F003041AD09D
:100C1000A1EB040120F00300E40750F8042B06D0F8
:100C20000FD28B785FFAA2F4E41A06D12BB1CB78FD
:100C30005FFAB2F4E41A00D11BB920465DF8104BFC
:100C4000704701F1040150F8042BCC0721F0030197
:100C500051F8043B48D824D222F07F4482FA4CF564
:100C600094EA1325A5FA8CF50AD165B951F8043B2D
:100C700084EA0204B4EB036F0ED150F8042BEBE7C7
:100C80004FEA132355E035F07F454DD10878FDE854
:100C90000445C0F1000070474FEA126203F0FF0301
:100CA00047E002EA1C4482FA4CF594EA1345A5FA9F
:100CB0008CF50AD165B951F8043B84EA0204B4EB1F
:100CC000034F0CD150F8042BEBE74FEA134330E00D
:100CD00015EA1C4528D10B884FEA124229E04FEA59
:100CE000124203EA1C4324E002F0FF0482FA4CF5AE
:100CF00094EA1365A5FA8CF50AD165B951F8043B5D
:100D000084EA0204B4EB032F09D150F8042BEBE77B
:100D10004FEA13630DE015F0FF0F05D10B684FEAA2
:100D2000122223F07F4304E04FF00000FDE8044569
:100D3000704712BA1BBA82FA4CF482EA0304A4FA8E
:100D40008CF5B5FA85F402FA04F203FA04F34FEADB
:100D50001260FDE80445A0EB1360704780EA0102D1
:100D6000844612F0030F4FD111F0030F32D14DF82A
:100D7000044D11F0040F51F8043B0BD0A3F10132E4
:100D80009A4312F0803F04BF4CF8043B51F8043BF7
:100D900016D100BF51F8044BA3F101329A4312F06F
:100DA000803FA4F101320BD14CF8043BA24312F076
:100DB000803F04BF51F8043B4CF8044BEAD0234673
:100DC0000CF8013B13F0FF0F4FEA3323F8D15DF825
:100DD000044B704711F0010F06D011F8012B0CF8ED
:100DE000012B002A08BF704711F0020FBFD031F865
:100DF000022B12F0FF0F16BF2CF8022B8CF80020EC
:100E000012F47F4FB3D1704711F8012B0CF8012B6E
:100E1000002AF9D1704700BF000000000000000068
:100E200000000000000000000000000000000000C2
:100E300000000000000000000000000000000000B2
:100E400090F800F06DE9024520F007016FF0000C0A
:100E500010F0070491F820F040F049804FF00004B2
:100E60006FF00700D1E9002391F840F000F108008D
:100E700082FA4CF2A4FA8CF283FA4CF3A2FA8CF3C5
:100E80004BBBD1E9022382FA4CF200F10800A4FA2C
:100E90008CF283FA4CF3A2FA8CF3E3B9D1E9042380
:100EA00082FA4CF200F10800A4FA8CF283FA4CF3B7
:100EB000A2FA8CF37BB9D1E9062301F1200182FA71
:100EC0004CF200F10800A4FA8CF283FA4CF3A2FA77
:100ED0008CF3002BC6D0002A04BF04301A4612BA85
:100EE000B2FA82F2FDE8024500EBD2007047D1E988
:100EF000002304F00305C4F100004FEAC50514F017
:100F0000040F91F840F00CFA05F562EA05021CBFE7
:100F100063EA050362464FF00004A9E72DE9F047B4
:100F2000254C2568D5F8484106468846924699469C
:100F3000C4B360681F2817DC431C76B104EB80053E
:100F40000122C5F888A0D4F8881182401143022EEE
:100F5000C4F88811C5F808911ED00230636044F8C7
:100F600020800020BDE8F087144B03B34FF4C87015
:100F7000FFF7C0F90446D0B1D5F84831002780E822
:100F80008800C5F8484138460123C4F88871C4F880
:100F90008C71002EE1D0D1E7D4F88C110A43C4F84B
:100FA0008C21DAE705F5A674C5F84841C1E74FF092
:100FB000FF30BDE8F08700BF004B0008F5020008D5
:100FC000F8B5244F0C460646FFF736FDBB685D6852
:100FD000C4F57E610F3125F00305294421F47F61BA
:100FE00021F00F01A1F58054B4F5805F07DB0021EB
:100FF0003046FFF725FDBB682B44984204D03046AD
:10100000FFF71CFD0020F8BD61423046FFF718FDD8
:1010100001300DD0104BBA6819682D1B45F0010541
:101020003046091B55601960FFF708FD0120F8BD27
:1010300000213046FFF704FDBA68831A0F2BDEDD6E
:10104000064C0549246843F00103001B5360086007
:10105000D5E700BF300400207408002038080020C5
:10106000002944D02DE9F0410D468046FFF7E4FC0D
:1010700055F8047C694927F00103A5F10804E2183A
:101080008E685068B24220F003005ED0FE075060C8
:101090000BD455F8087CE41B01F1080EA5687545D2
:1010A0003B446DD0E768EF60BD6015186D68ED07D3
:1010B0003ED543F001026260E350B3F5007F17D2E2
:1010C000DB08581C9A104D6851F83070A760012356
:1010D000934001EBC0022B43083AE2604B6041F8B9
:1010E0003040FC604046BDE8F041FFF7A7BC7047C8
:1010F0005A0A042A52D89A0902F13907FF0002F16C
:101100003805C819CA59083890424FD0516821F0A3
:1011100003018B4232D292689042F7D1C368A0603B
:10112000E3609C60C4604046BDE8F041FFF786BCC8
:1011300095683B4FBD42034440D0D068E86043F01F
:10114000010285606260E350B7E7FF07034407D4FC
:1011500055F8082CA41A1344A068E268C260906095
:10116000304A126843F00100934260608C60B9D34A
:101170002D4B40461968FFF723FFB3E71046CDE734
:1011800011184968C90744D49168D268CA600344F9
:1011900043F0010091606060E350A3E7142A16D881
:1011A00002F15C07FF0002F15B05AAE7AA10012328
:1011B0004D6893402B434B600346B0E743F0010278
:1011C0004C610C61E560A5606260E3508AE7542AD7
:1011D00006D81A0B02F16F07FF0002F16E0590E7C7
:1011E000B2F5AA7F06D8DA0B02F17807FF0002F108
:1011F000770586E740F25450824206D89A0C02F1F5
:101200007D07FF0002F17C057BE74FF47E777E25AA
:1012100077E743F001016160136063E73004002069
:10122000380400203C0800207008002053B94AB957
:10123000002908BF00281CBF4FF0FF314FF0FF30DE
:1012400001F0F6B8ADF1080C6DE904CE00F006F837
:10125000DDF804E0DDE9022304B070472DE9F04732
:101260008C460D460446089E002B51D18A421746F3
:101270006DD9B2FA82FEBEF1000F0BD0CEF1200C78
:1012800001FA0EF520FA0CFC02FA0EF74CEA050CF6
:1012900000FA0EF44FEA174A250CBCFBFAF81FFAC5
:1012A00087F90AFB18CC45EA0C4508FB09F3AB4269
:1012B0000AD9ED1908F1FF3280F02381AB4240F2E8
:1012C0002081A8F102083D44ED1AA4B2B5FBFAF062
:1012D0000AFB105544EA054400FB09F9A14509D968
:1012E000E41900F1FF3380F00A81A14540F2078143
:1012F00002383C44A4EB090440EA08400021002ED7
:1013000061D024FA0EF4002334607360BDE8F087E6
:101310008B4207D9002E54D0002186E821000846D0
:10132000BDE8F087B3FA83F1002940F08E80AB422C
:1013300002D3824200F2FA80841A65EB0305012091
:10134000AC46002E3FD086E81010BDE8F08712B9F9
:101350000127B7FBF2F7B7FA87FEBEF1000F34D1D1
:10136000EB1B3A0C1FFA87FC0121B3FBF2F8250CAA
:1013700002FB183345EA03450CFB08F3AB4207D9DF
:10138000ED1908F1FF3002D2AB4200F2D180804665
:10139000ED1AA3B2B5FBF2F002FB105543EA054487
:1013A0000CFB00FCA44507D9E41900F1FF3302D27D
:1013B000A44500F2B8801846A4EB0C0440EA0840AB
:1013C0009DE731463046BDE8F087CEF1200405FAAE
:1013D0000EF307FA0EF720FA04F83A0C25FA04F493
:1013E00048EA0308B4FBF2F14FEA184502FB114446
:1013F0001FFA87FC45EA044501FB0CF3AB4200FAF7
:101400000EF409D9ED1901F1FF3080F08A80AB426A
:1014100040F2878002393D44EB1A1FFA88F5B3FB8E
:10142000F2F002FB103345EA034500FB0CF3AB423C
:1014300007D9ED1900F1FF386FD2AB426DD90238F0
:101440003D44EB1A40EA01418FE7C1F1200722FA3F
:1014500007F88B4005FA01F448EA030320FA07FE77
:101460004FEA134CFD404EEA040EB5FBFCF94FEA7F
:101470001E440CFB19551FFA83F844EA054509FB85
:1014800008F4AC4202FA01F200FA01FA08D9ED18A8
:1014900009F1FF3043D2AC4241D9A9F102091D4400
:1014A0002D1B1FFA8EFEB5FBFCF00CFB10554EEA0F
:1014B000054400FB08F8A04507D9E41800F1FF3502
:1014C00029D2A04527D902381C4440EA0940A4EBA0
:1014D0000804A0FB02894C45C6464D4615D312D0E0
:1014E00056B1BAEB0E0364EB050404FA07F7CB40E0
:1014F0001F43CC40376074600021BDE8F087184678
:10150000F8E69046E0E6C245EAD2B8EB020E69EB97
:1015100003050138E4E72846D7E7404691E78146CE
:10152000BEE7014678E702383C4445E7084608E74D
:10153000A8F102083D442BE703685A004CBF43F072
:10154000004323F000431844704700BF61B32DE906
:10155000F84F01F1FF3A90460646D146002707EBC7
:10156000090404EBD4746410E50071190846FFF710
:10157000E3FFA245834605F10800304409D0FFF798
:10158000DBFFC34500F1FF3005D8404509D2671C99
:10159000E5E7C34505D9A74202D004F1FF39DEE7EC
:1015A00000210846BDE8F88F08467047012807D09B
:1015B000022807D0044B00280CBF184600207047B3
:1015C0000248704702487047B11C0008B51C00086B
:1015D000B91C000830B5244B83B004468D1E7BB384
:1015E00001A92846AFF3008020B301992A46FFF7EE
:1015F000ADFF0146F0B1FFF79FFF4B68A064012BE0
:1016000012D0002B01F1040020DBFFF795FF00232F
:10161000E06423650368002B1CDBFFF78DFF0023CC
:101620002061184603B030BD00232361052318460E
:1016300003B030BD002323610923184603B030BD39
:101640000A490B48091AC9100191CFE70123E06448
:101650002365DFE7C3F30360FFF7A8FF00282061DD
:1016600014BF00230923DCE7000000002C4C000815
:101670005C4B00080368DA0710B5044606D49B07E4
:1016800000F1480009D500F051FC2368590709D53D
:101690001A070ED5DB0613D510BD00F03FFC2368FA
:1016A0005907F5D404F1D00000F048FC23681A076C
:1016B000F0D404F5A87000F049FC2368DB06EBD4F5
:1016C00004F5E870BDE8104000F084BC036803B185
:1016D00003441846704700BF09207047704700BF99
:1016E00070B504460D4608E02B6C63612A462369F9
:1016F000214601209847082808D1296C2046FFF789
:1017000069FF06460028EFD000F094FE0728FBD1C1
:101710003046296CFFF7E2FF281D00F0F3FB00BF05
:101720002DE9F0470C1D054692460FCCADF5727DB4
:1017300003AE0FC60FCC0FC60FCC0FC694E80F0038
:1017400002ACD5F80C80D5F8189086E80F0000237D
:101750002846216C2360FFF73DFFBAF1000F0746D2
:1017600014BF0A2609267FB1A36B46F010018DE84D
:1017700010022A46636401202B46C04778BB3846D6
:101780000DF5727DBDE8F087236C6B614FF4F0724C
:1017900021467AA8FFF768F82B697AAA29463046CD
:1017A0009847889B82468DE81002314663642A463A
:1017B0002B460120C04790B94FF4F0727AA9204619
:1017C000FFF752F8BAF1080F06D1216C2846FFF74F
:1017D00001FF09260746C6E7BAF1070F05D009271A
:1017E00038460DF5727DBDE8F0873846216CFFF76D
:1017F00075FF03A800F086FB406C7047F0B5CB6B1B
:101800000B640E1D0F4604460FCEF9B001AD0FC597
:101810000FCE0FC50FCE0FC596E80F004FF0FF3665
:1018200085E80F00009606E023696A46214698473E
:101830000828054608D110992046FFF7CBFE00285E
:10184000F2D0092079B0F0BD6846FFF713FF062DEE
:10185000F7D139462046FFF743FF00BF30B4DD6BB8
:10186000C160826119461D64002230BC58E700BF88
:1018700070B5C66843690B6426B10122FFF750FFBB
:1018800000F0D8FD03690A4604460D4601460220D1
:101890009847072807D0082803D129462046FFF794
:1018A0001FFF00F0C7FD3046296CFFF717FF281D0A
:1018B00000F028FBC2681AB1CA6B0A6400222FE745
:1018C0009CE700BF704700BF836813B10146012049
:1018D0001847704700B5042907D8DFE801F003096D
:1018E000060909000BB90F2A05D902205DF804FB8F
:1018F00001205DF804FB00EB820218465368019A50
:1019000013605DF804FB00BF10B584B0002303AC86
:101910000A4600941946FFF7DDFF039804B010BD96
:1019200000B5042907D8DFE801F00309060909001A
:101930000BB90F2A05D902205DF804FB01205DF8E0
:1019400004FB019900EB82020968516018465DF8BA
:1019500004FB00BF10B584B004AC002344F8042D90
:101960000A4600941946FFF7DBFF04B010BD00BF24
:10197000F0B5D36B1364151D07460E460FCDADF5BC
:101980000F7D17AC0FC40FCD0FC40FCD0FC495E85A
:101990000F004FF0FF3584E80F00169510E016A8F1
:1019A000FFF7D8FF314616A8B84716AA694678B996
:1019B000049B08209847052804460AD0092807D028
:1019C00026996846FFF706FE6A460C210028E6D0F5
:1019D000092416A8FFF74EFE20460DF50F7DF0BD39
:1019E0002DE9F04F0D46C96C8BB00C1D09680791AD
:1019F0009146089400F0030B1E46002B60D10902AB
:101A0000032307918DF825608DF824302B6DBBF1F1
:101A1000020F08BFAC6B13F0010340D1019300F03B
:101A200008030393D4F80080B8F1000F39D0022ED8
:101A300043D0B4F8008067880434AB6C27F0010A07
:101A40000F2148469A44FFF75FFF824533D828F0BC
:101A500001039A4450452CBF002001207F0007F06D
:101A6000020708F0010847EA0807012F3ED035D3E6
:101A7000022F1CD1236823F000420292BBF1000F19
:101A800076D128B1039900297ED0002A00F0A680E3
:101A9000002B77DB029B013304EB8304C2E70023B6
:101AA0000193022E3EDDFFF717FE002840D00920EB
:101AB0000BB0BDE8F08F0020D0E767680834BCE7C2
:101AC000022BA3DC0B0CDAB209048DF825300223BB
:101AD00004EB820407918DF8243097E7BBF1000FE7
:101AE00002D0002840F0BD8004349BE7BBF1000F1A
:101AF00025D1A8B194E80C00991C4FEAD272D6D037
:101B000005F158010133069100F0A380201DFFF775
:101B1000DDFD06AB01462846AFF30080002877D1F3
:101B200008347FE707A9484600F0EEFA0028BED146
:101B3000019B002B5CD108200BB0BDE8F08F0D217C
:101B400048462F6AFFF7E0FE8742E9D1AB6A9C4224
:101B5000E6D12046FFF7F0FC0F2102464846FFF78A
:101B6000F9FE48462A460021FFF7F4FE07209FE7CA
:101B70000D2148462F6AFFF7C7FE874258D02368D9
:101B8000002B87DA043485E7029B3BB305F1580349
:101B9000271DCDF810B0DDF80C80DDF808A0059603
:101BA000A3461C4602E0B245B04616D0384606941D
:101BB000FFF78CFD06AB014600222846AFF30080FC
:101BC00008F1010604370028EDD0029B059E43452D
:101BD0005C46DDF810B0D2D100E05C4648460D21ED
:101BE000FFF792FE069B2862AC626B6206205FE7FD
:101BF0000F214846FFF788FE0E2102464846FFF7B0
:101C0000A9FE4846294A0F21FFF7A4FE07204FE707
:101C100007460D214846FFF777FE022F28621DD1A7
:101C20002B46069A43F82C2F6B62AC6206203FE7E6
:101C3000AB6A9C42A3D104220027A3180299A9628F
:101C4000EF622A636B632368BB421DDB01230193B0
:101C500020E748460D21FFF757FE2862069B6B627E
:101C6000E3E72046FFF768FC04340646AC632846E9
:101C7000AFF3008000283FF41AAF484632460F21E8
:101C8000FFF768FE072013E70846013004EB8000E9
:101C9000FFF752FC0F2102464846FFF75BFE48461D
:101CA0002A463946FFF756FE072001E700000000EC
:101CB000002395E6012393E6022391E6F0B504465E
:101CC000C5B004290DD8DFE801F053030C310F0033
:101CD000012B4FEA124695B262D17219102A40F2D6
:101CE0009B80022045B0F0BD002BFAD1102AF8D815
:101CF0002368D80600F1C68022AE3046019200F07B
:101D000073F9A06B019A0023012505FA03F1114232
:101D100003D0016846F8231004300133042BF4D1BA
:101D2000A063304600F056F90020DBE7032BD8D142
:101D3000150C97B2EB19102BD3D823681E0700F1AE
:101D4000B58022AE304600F023F9ED00A36B4FB111
:101D5000043D711903EBC70053F8042B41F8042F1D
:101D60008342F9D13046A36300F0F0F80020B9E7D0
:101D7000002BB6D1A56B97B2201D012606FA03F100
:101D8000394203F1010302D0296801600435102BA8
:101D900000F10400F2D112F400503BD1A563A1E799
:101DA000052B9ED17719202F9BD80F2E66D92F4651
:101DB000002D3AD12A460027002AA06B72DD00EBE5
:101DC000C202014644A800EBC6008C3851F8045BFF
:101DD00040F8045F9142F9D1084697B1102E32467F
:101DE00044A938BF102201EBC202A2F5C4727900E7
:101DF000043A00EB810150F8045B42F8045F88422A
:101E0000F9D1012B48D00F2EA16333D917B102A805
:101E100000F094F8002065E70F2E3FF662AF002730
:101E20002268D10717D4002F60D02268510745D40B
:101E3000012B4DD00F2E06D822A8019300F07AF87E
:101E4000019B002FB6D002A8019300F07BF8019B04
:101E5000C6F11002B0E722F00101052B21600193C9
:101E600020463BD022F0030240F8482B00F05AF8FD
:101E7000019BD8E722A800F059F8C7E7102FCED968
:101E8000103FCDE723F01003236004F5E8700192C2
:101E900000F0AAF8019A2FE70431A16322A800F00C
:101EA0003DF8B7E7002F99D10146AAE723F00803D0
:101EB000236004F5A87000F06BF842E7204622F09A
:101EC000040240F8D02B019300F03CF8019BAFE7EF
:101ED00022A8019300F026F8019BB9E741F0020126
:101EE00040F8481B00F026F8019B9CE7012B03D02B
:101EF0000F2E3FF65FAF9FE722A8019300F012F884
:101F0000019B57E700F1340191E838009C46A64652
:101F10004CF8045D90E8FF0FE54600BD90EC210B06
:101F2000704700BF80EC210B704700BF90EC200B86
:101F3000704700BF80EC200B704700BFD0EC200B37
:101F4000704700BFC0EC200B704700BFF0EC0201EF
:101F5000F0EC0211F0EC0221F0EC0231F0EC024165
:101F6000F0EC0251F0EC0261F0EC0271F0EC028155
:101F7000F0EC0291F0EC02A1F0EC02B1F0EC02C145
:101F8000F0EC02D1F0EC02E1F0EC02F1704700BF9E
:101F9000E0EC0201E0EC0211E0EC0221E0EC0231A5
:101FA000E0EC0241E0EC0251E0EC0261E0EC027195
:101FB000E0EC0281E0EC0291E0EC02A1E0EC02B185
:101FC000E0EC02C1E0EC02D1E0EC02E1E0EC02F175
:101FD000704700BFB0FC0181B0FC0191B0FC01A1D1
:101FE000B0FC01B1704700BFA0FC0181A0FC0191D1
:101FF000A0FC01A1A0FC01B1704700BFEC4600B5F8
:102000002DE900502DE9FF1F4FF000032DE90C00D2
:1020100001A9FFF7F3FBDDF840E012B0704700BF05
:10202000EC4600B52DE900502DE9FF1F4FF00003ED
:102030002DE90C0001A9FFF71BFCDDF840E012B010
:10204000704700BFEC4600B52DE900502DE9FF1F99
:102050004FF000032DE90C0001A9FFF72BFCDDF880
:1020600040E012B0704700BFEC4600B52DE90050CB
:102070002DE9FF1F4FF000032DE90C0001ABFFF726
:10208000EDFBDDF840E012B0704700BFEC4600B554
:102090002DE900502DE9FF1F4FF000032DE90C0042
:1020A00001AAFFF765FCDDF840E012B0704700BF01
:1020B000027A1AB9437A43B9B02070470368013AEB
:1020C00002721A020260180E70474268013B10B497
:1020D000437213680321141D01721A0244600260E6
:1020E0005DF8044B180E704700B585B003AA0023B5
:1020F000009219460C22FFF7EDFB039805B05DF83E
:1021000004FB00BFF0E700BF2DE9F043064685B0B1
:102110000F464FF000083846FFF7CAFFB0280446C4
:1021200023D0050627D400230DF10C09194685009C
:102130000D22CDF800903046FFF7CCFBEDB2039BAB
:10214000CDF80090600605F104054CBF5D1BED184D
:10215000002319460D2230460395FFF7E1FB384670
:10216000FFF7A6FFB0280446DBD1B8F1000F00F05E
:10217000958000201CE000F0F003802B5DD0902BB8
:1021800019D0A02B2CD0B02B3FD0C02B6CD000F09E
:10219000F803D02B0BD100F00702013242F40022E9
:1021A000052301213046FFF789FD0028B3D009201F
:1021B00005B0BDE8F08300F00D030D2BF7D003ADA3
:1021C000002300F00F02194600953046FFF782FB0E
:1021D0000023009519460D223046FFF7A1FB9AE730
:1021E000C24302F007034FF47F621A41010702F471
:1021F0007F624FF0000348BF42F4804219463046E8
:10220000FFF75CFD0028D2D185E7B12857D0B2286E
:1022100068D0B32800F0958000F0FC03B42BC6D042
:1022200000F007020132012342F400221946304631
:10223000FFF744FD0028BAD16DE73846FFF738FFB5
:1022400024020443B4F5004FB1D024010023A2B20C
:1022500019463046FFF732FD0028A8D114F4004F8C
:1022600018BF4FF0010856E7C6287DD0C72800F0F8
:10227000868000F0F803C02B00F09480C82800F09E
:102280009F80C92893D13846FFF712FF020300F060
:102290000F0002F470220130024381E703AC434691
:1022A0000E22414600943046FFF714FB009430465E
:1022B00043460F224146FFF733FB404678E7384656
:1022C000FFF7F6FE00283FF472AF10F0F0037FF442
:1022D0006EAF024619463046FFF7F0FC00287FF447
:1022E00066AF18E700230DF10C090D221946CDF851
:1022F00000903046FFF7EEFA3846FFF7D9FE0206A7
:102300004FF002040CD5039B00F07F00A040034473
:1023100038460393FFF7CCFE030604F10704F2D41A
:10232000039BCDF8009000F07F02A24003F50174FA
:102330000023144419460D2230460394FFF7F0FAA7
:10234000E9E63846FFF7B4FE010300F00F0001F4A0
:102350007021421C01230A4330461946FFF7AEFCA8
:1023600000287FF424AFD6E63846FFF7A1FE01032C
:1023700000F00F0001F47021421C0323EBE7384604
:10238000FFF796FE00283FF412AF10F0F0037FF441
:102390000EAF024604213046FFF790FC00287FF480
:1023A00006AFB8E600F00F020132032342F4202208
:1023B00019463046FFF782FC00287FF4F8AEAAE603
:1023C0003846FFF775FE00F0F00200F00F03103200
:1023D000013343EA0232E3E610B5C36C84B05A68B5
:1023E00003208DF80C00DC798DF80D4012020833C3
:1023F000084601A901920293FFF786FE04B010BDC2
:1024000008B5FFF77FFE806C08BD00BF08B5FFF779
:1024100079FEC06CC37900EB8300083008BD00BFB3
:1024200008B500F007F800BF08B5FFF7F9FF00BFD7
:10243000704700BF08B5062000F09EF8012000F0AC
:10244000F1F800BF10B580210446FDF763FFC4F822
:10245000DC0240B1031F00227C3043F8042F83428A
:10246000FBD1002010BD4FF0FF3010BDD0F8DC32A2
:102470000BB100207047E5E71F290AD810B5D0F846
:10248000DC4284B054B154F8210044F8212004B057
:1024900010BD162202604FF0FF3070470390029289
:1024A0000191FFF7CFFF28B9039B029AD3F8DC42D2
:1024B0000199E8E74FF0FF30E9E700BF1F2928D86E
:1024C00020B5D0F8DC2282B00546AAB152F82130FE
:1024D00093B1012B0ED0581C07D00025084642F8B6
:1024E00021509847284602B020BD162301202B60BA
:1024F00002B020BD0020F6E72846019100F072F8F6
:1025000001990A460146284602B0BDE8204000F085
:1025100055B8162303604FF0FF3070471F2928D8A5
:1025200020B5D0F8DC3282B00546BBB153F821208B
:1025300003EB810382B1501C0BD0012A06D0002589
:1025400008461D609047284602B020BD032002B017
:1025500020BD022002B020BD0120F5E70191FFF768
:1025600071FF18B9D5F8DC320199DFE74FF0FF3081
:10257000EAE74FF0FF307047024B01461868FFF75B
:102580009DBF00BF00000020024B0A4601461868AC
:10259000FFF772BF00000020034B1868D0F8DC3250
:1025A0000BB1002070474DE700000020024B0146B0
:1025B0001868FFF7B3BF00BF0000002038B50B4616
:1025C000074C0546114618460023236000F014F816
:1025D000431C00D038BD2368002BFBD02B6038BDD6
:1025E0009049002000F000B8024B58221A604FF0CA
:1025F000FF30704790490020024B58221A604FF07C
:10260000FF30704790490020044A05491368002BA9
:1026100008BF0B461844106018467047A4080020F5
:1026200098490020FEE700BF436A23B1036B186896
:10263000C0F1070070470020704710B5044602F053
:1026400099F8A26BE36B9A4204D0002402F0B4F82C
:10265000204610BD0124F9E710B5044602F08AF8BF
:10266000A36B23B1002402F0A7F8204610BD01247B
:10267000F9E770B504461646856B026C4AB90368E3
:1026800053BB406800F054FF002363600135A5632D
:1026900070BD6EB98068FEF7E7F8226CA36813443A
:1026A000A3606268934219D32368A3600020EDE71A
:1026B000C068FEF7D9F8236C5B42E2681A44E26016
:1026C00021688A4202D262681344E360022E07D175
:1026D00045B1013D0020D9E70020D7E70020D5E72C
:1026E0000020D3E70020D1E738B5054602F042F8D4
:1026F00095F8454064B201E0013C64B2002C0ADD6B
:102700006B6A43B105F1240000F00AFE0028F3D003
:1027100000F098FEF0E7FF2385F8453002F04CF812
:1027200002F028F895F8444064B201E0013C64B23C
:10273000002C0ADD2B6943B105F1100000F0F0FD1B
:102740000028F3D000F07EFEF0E7FF2385F8443048
:1027500002F032F838BD000038B530B304460D46FB
:1027600002F008F82168E26B236C03FB0210606042
:102770000020A063A160013A02FB0313E360FF2382
:1027800084F8443084F84530C5B92369F3B104F1C5
:10279000100000F0C5FDC8B14FF080520D4B1A601B
:1027A000BFF34F8FBFF36F8F10E04FF0500383F3F1
:1027B0001188BFF36F8FBFF34F8FFEE704F1100056
:1027C00000F0EEF904F1240000F0EAF901F0F4FF62
:1027D000012038BD04ED00E010B5029B0C4639B174
:1027E0001A60D8631C6401211846FFF7B5FF10BDBD
:1027F0001B60F6E740B94FF0500383F31188BFF335
:102800006F8FBFF34F8FFEE7F0B583B0064611B16F
:1028100001FB00F000E0002017460C46483001F0B4
:1028200085FE054650B1002380F8463000903B46B7
:1028300000F1480221463046FFF7CEFF284603B09C
:10284000F0BD0000F0B585B0019260B1044699B1C9
:102850000125BDB94FF0500383F31188BFF36F8F8B
:10286000BFF34F8FFEE74FF0500383F31188BFF3A0
:102870006F8FBFF34F8FFEE7026C0AB90125E8E7BF
:102880000025E6E7022B09D06DB94FF0500383F322
:102890001188BFF36F8FBFF34F8FFEE7E26B012A02
:1028A000F2D00025F0E71E460F4600F0D1FD10B92A
:1028B000019B03B1002545B94FF0500383F3118804
:1028C000BFF36F8FBFF34F8FFEE700252CE032463A
:1028D00039462046FFF7CDFE636A8BB104F1240030
:1028E00000F01EFD38B14FF08052374B1A60BFF335
:1028F0004F8FBFF36F8F01F05FFF012005B0F0BD78
:102900000028F8D04FF080522F4B1A60BFF34F8F42
:10291000BFF36F8FEFE701F04FFF0020EEE7204697
:10292000FFF7E2FE00F018FC01F024FFA26BE36B5E
:102930009A42CCD3022ECAD0019B002BEBD01DB9FA
:1029400002A800F033FD012501F036FF00F06CFB1A
:1029500001F010FF94F844305BB2B3F1FF3F02D1B5
:10296000002384F8443094F845305BB2B3F1FF3F64
:1029700002D1002384F8453001F01EFF01A902A80E
:1029800000F020FDC8B92046FFF757FE0028C6D04A
:10299000019904F1100000F0ABFC2046FFF7A4FE03
:1029A00000F0DAFB0028BFD14FF08052064B1A60CE
:1029B000BFF34F8FBFF36F8FB6E72046FFF794FE4C
:1029C00000F0CAFB002099E704ED00E048B108B52B
:1029D000002141600160C1600B460A46FFF732FFEB
:1029E00008BD704710B5024600210120FFF702FF25
:1029F0000446FFF7EBFF204610BD000070B584B021
:102A0000019158B10446036C8BB14FF0500383F32E
:102A10001188BFF36F8FBFF34F8FFEE74FF0500366
:102A200083F31188BFF36F8FBFF34F8FFEE700F082
:102A30000FFD60B9019B63B9012363B94FF05003E7
:102A400083F31188BFF36F8FBFF34F8FFEE701232E
:102A5000F3E70023F1E700252E464EE0013BA36398
:102A6000236813B900F024FE6060236963B104F1A8
:102A7000100000F055FC38B14FF08052474B1A60FF
:102A8000BFF34F8FBFF36F8F01F096FE01252846ED
:102A900004B070BD45B14FF0500383F31188BFF30C
:102AA0006F8FBFF34F8FFEE701F086FEEFE702A8BE
:102AB00000F07CFC01262AE0002384F8443032E058
:102AC000002384F8453034E001F054FE606800F0E3
:102AD000CFFC054601F070FE3BE02046FFF704FE08
:102AE00000F03AFB09E02046FFF7FEFD00F034FB62
:102AF0002046FFF7B1FD002840D101F03BFEA36B5B
:102B0000002BABD1019B002BC4D0002ECFD001F005
:102B100053FE00F089FA01F02DFE94F844305BB2C8
:102B2000B3F1FF3FC8D094F845305BB2B3F1FF3F3B
:102B3000C6D001F041FE01A902A800F043FC002824
:102B4000D1D12046FFF788FD0028C6D02368002B8E
:102B5000BAD0019904F1240000F0CAFB2046FFF727
:102B6000C3FD00F0F9FA0028C7D14FF080520B4B9B
:102B70001A60BFF34F8FBFF36F8FBEE7002D86D073
:102B800001F0F8FD2046FFF74FFD0146606800F0B8
:102B900029FD01F011FE002579E700BF04ED00E0FA
:102BA00000F1080343604FF0FF328260C3600361AD
:102BB00000230360704700230361704743684B6044
:102BC0009A688A609A685160996008610368013365
:102BD0000360704730B40D68B5F1FF3F02D000F1DB
:102BE000080202E0026904E01A4653681C68A54224
:102BF000FAD253684B6099608A605160086103683B
:102C00000133036030BC704703694268816891609A
:102C10008268416851605A68904206D00022026181
:102C20001A68013A1A601868704782685A60F5E7B6
:102C30000A4B1B681B684BB901234BB9074B1B6838
:102C4000DB68DB685A68064B1A6070470023F4E7BC
:102C50004FF0FF32024B1A60704700BFAC080020F3
:102C6000800900202DE9F04780469946089D099F7C
:102C70000A9C266B02F18042013A06EB820626F09E
:102C8000070600230F2B07D8C85CE21882F834002F
:102C9000CA5C0AB10133F5E7002384F84330062DFE
:102CA00000D90625E56265644FF0000AC4F848A023
:102CB000201DFFF780FF04F11800FFF77CFF24615F
:102CC000C5F10705A5616462C4F84CA084F850A062
:102CD0004A464146304601F023FD206007B13C6082
:102CE000BDE8F08738B5002407E004EB84029300C8
:102CF0000E481844FFF754FF0134062CF5D90C4D4B
:102D00002846FFF74DFF0B4C2046FFF749FF0A48C6
:102D1000FFF746FF0948FFF743FF0948FFF740FF69
:102D2000084B1D60084B1C6038BD00BFB408002074
:102D3000580900206C09002088090020B4090020EF
:102D4000A0090020AC080020B008002010B50446FF
:102D500001F010FD204A1368013313601F4B1B68FC
:102D6000002B31D01E4B1B683BB91C4B1B68DA6A29
:102D7000E36A9A4201D8194B1C601A4A136801335E
:102D80001360E36A01229A401749086802430A6007
:102D900003EB83039A00211D14481044FFF70EFF34
:102DA00001F00AFD0E4B1B686BB10C4B1B68DA6A15
:102DB000E36A9A4207D24FF080520D4B1A60BFF37C
:102DC0004F8FBFF36F8F10BD044B1C601368012B36
:102DD000D3D1FFF787FFD0E740090020A8080020E3
:102DE0009C0900205009002054090020B40800204C
:102DF00004ED00E010B5044690F8513063B1012BAA
:102E000011D0022B12D04FF0500383F31188BFF37F
:102E10006F8FBFF34F8FFEE7006B01F00BFC204676
:102E200001F008FC10BD01F005FC10BD10BD000054
:102E30000F4B1B68D3B110B501F09CFC0D4BDB6848
:102E4000DC68201DFFF7E0FE0B4A1368013B1360AE
:102E5000074A1368013B136001F0AEFC2046FFF700
:102E6000C9FF034B1B68002BE6D110BD704700BFA4
:102E700044090020B40900204009002008B5FFF7EC
:102E8000D7FF064B1B68012BF9D94FF08052044B3A
:102E90001A60BFF34F8FBFF36F8FF0E7B4080020C5
:102EA00004ED00E070B504460E461D4B1D681D4B39
:102EB00018680430FFF7A8FE50B91A4B1B68DA6A8D
:102EC000012303FA02F218490B6823EA02030B609C
:102ED000B4F1FF3F13D02C44124B1B685C60A54239
:102EE00016D8124B18680F4B19680431FFF772FEA1
:102EF0000F4B1B689C4201D20D4B1C6070BD002E15
:102F0000E9D0084B196804310A48FFF757FE70BD35
:102F1000094B1868034B19680431FFF75BFE70BD5D
:102F2000C8090020A808002054090020AC0800208F
:102F300080090020A0090020B008002070B586B0EC
:102F40000B9D0C9C75B1B4B154260496049E542E6E
:102F50001AD04FF0500383F31188BFF36F8FBFF384
:102F60004F8FFEE74FF0500383F31188BFF36F8F4D
:102F7000BFF34F8FFEE74FF0500383F31188BFF389
:102F80006F8FBFF34F8FFEE72563022584F8515002
:102F900000250395029405AD01950A9D0095FFF764
:102FA00061FE2046FFF7D2FE059806B070BD000016
:102FB00010B588B000240594069407AA06A905A8B0
:102FC00000F062FC059B0293069B0193009423464C
:102FD000079A10491048FFF7B1FF18B101231BB938
:102FE00008B010BD0023FAE74FF0500383F31188B7
:102FF000BFF36F8FBFF34F8F4FF0FF32074B1A6055
:103000000122074B1A600022064B1A6001F054FCA3
:10301000E6E700BF044B00087D2E00088009002071
:103020009C090020C8090020024A1368013313607C
:10303000704700BF4C090020F8B53C4B1B68002BC3
:1030400068D13B4B1D6801351D60C5B9394B1B6804
:103050001B6843B14FF0500383F31188BFF36F8FA8
:10306000BFF34F8FFEE7334A1168334B1868106087
:103070001960324A136801331360FFF7D9FD304BF2
:103080001B689D423AD200242E4B1B68DB6A03EB7F
:1030900083039A002C4B9B58012B40D901243EE01E
:1030A0000124244B1B681B6853B3002353BB214BE3
:1030B0001B68DB68DE6873689D4228D3371D38467D
:1030C000FFF7A2FDB36A1BB106F11800FFF79CFDE4
:1030D000F36A01229A401D49086802430A6003EB23
:1030E00083039A00394618481044FFF767FDF26AD7
:1030F000144B1B68DB6A9A42D2D2D2E70024D0E795
:103100000123D3E74FF0FF320D4B1A60BCE70C4AA6
:103110001360B9E70E4A13680133136000240D4BA6
:103120001B6803B101242046F8BD00BF4C090020F4
:10313000C8090020AC080020B00800208409002045
:1031400080090020A8080020B408002054090020AD
:1031500048090020CC09002038B5354B1B6843B91D
:103160004FF0500383F31188BFF36F8FBFF34F8F7E
:10317000FEE701F0FFFA2E4B1A68013A1A601B684D
:10318000002B50D12B4B1B6823B9002401F014FBFA
:10319000204638BD0024284B1B681BB3264BDB6838
:1031A000DC6804F11800FFF72FFD251D2846FFF706
:1031B0002BFDE36A01229A402049086802430A6015
:1031C00003EB83039A0029461D481044FFF7F6FCE1
:1031D000E26A1C4B1B68DB6A9A42DCD301221A4B61
:1031E0001A60D8E70CB1FFF723FD184B1C6874B9BF
:1031F000154B1B68CBB14FF08052154B1A60BFF3D3
:103200004F8FBFF36F8F0124C0E7013C07D0FFF75A
:1032100013FF0028F9D001220B4B1A60F5E70022BA
:103220000A4B1A60E4E70024B0E70024AEE700BFD1
:103230004C09002040090020880900205409002082
:10324000B4080020A8080020CC090020480900206C
:1032500004ED00E0214B1B68C3B90022204B1A602B
:10326000204B1B68B3FA83F3DBB2C3F11F0303EBFC
:1032700083018A001C498A5862B94FF0500383F3D6
:103280001188BFF36F8FBFF34F8FFEE70122144BFE
:103290001A60704710B414489A00D418A100014471
:1032A0004C6864684C601A449100083108448442B8
:1032B0000BD003EB83039A000B4B13445B68DA6873
:1032C0000A4B1A605DF8044B7047606803EB830299
:1032D0009100054A0A445060EBE700BF4C0900200A
:1032E000CC09002054090020B4080020A8080020C0
:1032F00040B94FF0500383F31188BFF36F8FBFF3D2
:103300004F8FFEE710B50C46044B19681831FFF7D4
:1033100061FC01212046FFF7C5FD10BDA808002073
:1033200038B5C368DC6824B304F118052846FFF7F4
:103330006BFC184B1B682BBB251D2846FFF764FC54
:10334000E36A01229A401449086802430A6003EBC9
:1033500083039A00294611481044FFF72FFCE26AC4
:103360000F4B1B68DB6A9A4211D901200D4B186084
:1033700038BD4FF0500383F31188BFF36F8FBFF355
:103380004F8FFEE729460848FFF718FCE7E70020C3
:1033900038BD00BF4C09002054090020B4080020AB
:1033A000A8080020CC09002088090020034B1B68D6
:1033B0000360034B1B684360704700BF8409002013
:1033C000C8090020F8B5E0B1054619B30C4601F074
:1033D000D1F91A4B18686968421A2368B3F1FF3FA4
:1033E00028D02F68164E3668B74201D0884223D2C3
:1033F0009A4218D300232360012401F0DDF920460E
:10340000F8BD4FF0500383F31188BFF36F8FBFF304
:103410004F8FFEE74FF0500383F31188BFF36F8F98
:10342000BFF34F8FFEE79B1A23602846FFF7BEFFCE
:103430000024E2E70024E0E70124DEE7C8090020D9
:10344000840900200122014B1A607047CC0900203A
:10345000054B1B6823B1054B1B681BB90220704745
:1034600001207047002070479C0900204C09002073
:10347000002854D038B50446C26A2A490968C96A86
:103480008A4242D28169002905DB26490968C96A56
:10349000C1F107018161606902EB82029100224A59
:1034A0000A44904207D000223AB91E4A1268D26AF2
:1034B000E262012038BD0122F6E7251D2846FFF70C
:1034C000A3FB68B9E36A03EB83018A0016498A58B3
:1034D00032B901229A4015490B6823EA02030B60B6
:1034E000104B1B68DB6AE362012404FA03F20F4904
:1034F000086802430A6003EB83039A0029460A48DE
:103500001044FFF75BFB204638BD426C054B1B683F
:10351000DB6A9A4201D2012038BD002038BD00206C
:10352000704700BFA8080020B408002054090020FC
:1035300000284AD038B50446274A1268904208D07D
:103540004FF0500383F31188BFF36F8FBFF34F8F9A
:10355000FEE7826C42B94FF0500383F31188BFF34A
:103560006F8FBFF34F8FFEE7013A8264C06A616CD0
:1035700088422CD06ABB251D2846FFF745FB70B951
:10358000E26A02EB82018B001449CB583BB901235C
:1035900003FA02F212490B6823EA02030B60636C20
:1035A000E362C3F10702A261012404FA03F20C49A9
:1035B000086802430A6003EB83039A002946074820
:1035C0001044FFF7FBFA204638BD0020704700206A
:1035D00038BD002038BD00BFA8080020B408002076
:1035E0005409002000285BD038B50446806C40B9EF
:1035F0004FF0500383F31188BFF36F8FBFF34F8FEA
:10360000FEE7626C8A4200D20A46E16A8A4201D031
:10361000012800D038BD23480068844208D14FF00B
:10362000500383F31188BFF36F8FBFF34F8FFEE713
:10363000E262A069002802DBC2F10702A2616369AD
:1036400001EB81018800184A0244934226D10122ED
:10365000002ADFD0251D2846FFF7D6FA70B9E26AA6
:1036600002EB82018B001049CB583BB9012303FACE
:1036700002F20E490B6823EA02030B60E36A01229F
:103680009A400A49086802430A6003EB83039A00E0
:10369000294605481044FFF791FABBE70022D7E717
:1036A000704700BFA8080020B4080020540900207B
:1036B000054B1B6823B1044B1A68936C0133936468
:1036C000014B1868704700BFA808002000B589B0FA
:1036D00000230193194A116C41F400211164116C0B
:1036E00001F40021019101990293116B41F0010154
:1036F0001163126B02F001020292029A1048114A01
:1037000002604FF4E13242608360C36003610C22C7
:1037100042618361C36100F0AEF903230393022287
:1037200004920122059206930823079303A90648F1
:1037300000F0D0F909B05DF804FB00BF003802408A
:10374000D0090020004C004000000240F8B50546BA
:103750000E46374B1B68ABB14FF0FF31344B186846
:10376000FFF74CF933492846FDF78EF980B1324B0B
:103770001F683C462CB32946601DFDF785F9F8B15A
:103780002468F7E70120FFF72DF9294B1860E3E7DC
:103790002A4B1E7004E00268274B1A60FCF7B2FD4A
:1037A000254B18680028F6D10021254B1960254BC0
:1037B00019600B460A461E480068FFF743F8F8BD3B
:1037C00026716CB100241E4B1B689C4228D22946EE
:1037D0001D4B53F83400FDF757F9D0B10134F2E72F
:1037E0002846FDF72DFB0630FCF784FD044640B16A
:1037F000067129460530FDF7B1FA27600E4B1C60B3
:10380000E0E700231A46194609480068FFF71AF84E
:10381000F8BD0D4B03EBC404237966F30203237157
:1038200000231A46194602480068FFF70BF8F8BD56
:10383000100B00200C4B0008140B00204008002047
:10384000080B00200C0B0020100A00207047FEE738
:10385000FEE7FEE7FEE7704708B500F0F5FDFFF76D
:10386000F7FD012801D000F0F5FF08BD054BD3F8A6
:10387000882042F47002C3F888204FF000629A60FA
:10388000704700BF00ED00E0034B0360034B0B608B
:1038900080231360704700BF180D0020180B002014
:1038A000F8B504460268136923F44053C1680B431A
:1038B000136183680269134342691343C269134366
:1038C0000168CA6822F4164222F00C021343CB604E
:1038D0000268536923F4407381690B435361C369E0
:1038E000B3F5004F34D00368604A934200F09280F1
:1038F00002F58062934200F08D8000F0EFFC2568B5
:103900000021061841EB010736184F41FB0043EA3E
:103910005673F20016461F4663689A009B0F801983
:103920007941FDF783FC524CA4FB0032510964221B
:1039300002FB110213013233A4FB03235B0903F0E2
:10394000F00202EB011203F00F031344AB60F8BD69
:103950000368464A934230D002F5806293422CD0ED
:1039600000F0BCFC25680021061841EB0107361861
:103970004F41FB0043EA5673F20016461F46626849
:10398000002392185B4180197941FDF74FFC384CB8
:10399000A4FB00325109642202FB1102D30032332E
:1039A000A4FB03235B095A0002F4F87202EB011234
:1039B00003F007031344AB60F8BD00F09FFC2568DB
:1039C0000021061841EB010736184F41FB0043EA7E
:1039D0005673F20016461F466268002392185B4138
:1039E00080197941FDF722FC214CA4FB00325109DA
:1039F000642202FB1102D3003233A4FB03235B09D0
:103A00005A0002F4F87202EB011203F007031344A8
:103A1000AB60F8BD00F072FC25680021061841EB90
:103A2000010736184F41FB0043EA5673F200164671
:103A30001F4663689A009B0F80197941FDF7F6FBDA
:103A40000B4CA4FB00325109642202FB110213014A
:103A50003233A4FB03235B0903F0F00202EB0112F3
:103A600003F00F031344AB60F8BD00BF001001402A
:103A70001F85EB51704758B310B5044690F83930A4
:103A80000BB3242384F839302268D36823F400531D
:103A9000D3602046FFF704FF2268136923F49043A4
:103AA00013612268536923F02A0353612268D368A3
:103AB00043F40053D3600020E063202384F83930BE
:103AC00084F83A3010BD80F83830FFF7D3FFD8E7DC
:103AD0000120704700230F2B00F2DF80F0B583B088
:103AE00050E04FEAD30C0CF1080C50F82C5003F0C6
:103AF000070E4FEA8E0E0F2606FA0EF625EA060589
:103B00000E6906FA0EF6354340F82C506FE0072692
:103B100000E0002606FA0EF6354302325F4E46F804
:103B200022505F4A1568E24305EA02064F6817F41F
:103B3000803F01D044EA0506594D2E606D6802EAC7
:103B400005064F6817F4003F01D044EA0506544DBE
:103B50006E60AD6802EA05064F6817F4801F01D059
:103B600044EA05064E4DAE60ED682A404E6816F4F4
:103B7000001F01D044EA0502494CE26001330F2BDB
:103B800000F2898001229A400C681440A242F5D1CB
:103B90004D686E1E012E03D9112D01D0122D15D1A5
:103BA00085684FEA430E032707FA0EF725EA070553
:103BB000CE6806FA0EF635438560456825EA0202AE
:103BC0004D68C5F300159D402A434260C6685F00FA
:103BD0000322BA40D24316408D68BD402E43C660D2
:103BE0004D68022D3FF47DAF122D3FF47AAF05688A
:103BF0002A404D6805F00305BD402A4302604A682B
:103C000012F0805FBAD000220192264A556C45F42A
:103C100080455564526C02F480420192019A9A08E0
:103C2000961C1E4D55F8265003F003064FEA860EEB
:103C30000F2606FA0EF625EA06051B4FB8423FF49A
:103C400068AF1A4EB0421AD006F58066B04218D05E
:103C500006F58066B04216D006F58066B04214D0F4
:103C600006F58066B04212D006F58066B04210D0EC
:103C700006F58066B0423FF44AAF08264AE70126BF
:103C800048E7022646E7032644E7042642E70526DE
:103C900040E706263EE703B0F0BD7047003801401C
:103CA000003C014000380240000002400004024095
:103CB000002800F0E48170B582B00446036813F078
:103CC000010F3BD0A74B9B6803F00C03042B2CD0B7
:103CD000A44B9B6803F00C03082B21D06368B3F559
:103CE000803F4FD0B3F5A02F52D09E4B1A6822F4DC
:103CF00080321A601A6822F480221A606368002BEE
:103D000050D000F0ADFB0546964B1B6813F4003F06
:103D100014D100F0A5FB401B6428F5D90320B3E1C2
:103D2000904B5B6813F4800FD8D08E4B1B6813F454
:103D3000003F03D06368002B00F0A381236813F0D9
:103D4000020F55D0874B9B6813F00C0F3ED0854B6C
:103D50009B6803F00C03082B33D0E368002B68D07A
:103D60000122814B1A6000F07BFB05467D4B1B68EE
:103D700013F0020F54D100F073FB401B0228F5D959
:103D8000032081E1774A136843F480331360B5E779
:103D9000744B1A6842F480221A601A6842F4803226
:103DA0001A60ABE700F05CFB05466E4B1B6813F432
:103DB000003FC3D000F054FB401B6428F5D903201A
:103DC00062E1684B5B6813F4800FC6D1654B1B68DA
:103DD00013F0020F04D0E368012B01D0012053E15E
:103DE000604A136823F0F803216943EAC1031360B2
:103DF000236813F0080F40D0636963B301225B4B63
:103E00001A6000F02DFB0546564B5B6F13F0020F56
:103E100033D100F025FB401B0228F5D9032033E104
:103E2000504A136823F0F803216943EAC103136081
:103E3000DEE700224C4B1A6000F012FB0546494BAE
:103E40001B6813F0020FD3D000F00AFB401B0228BE
:103E5000F5D9032018E10022444B1A6000F000FB62
:103E60000546404B5B6F13F0020F06D000F0F8FAE6
:103E7000401B0228F5D9032006E1236813F0040F44
:103E800079D0384B1B6C13F0805F33D10023019342
:103E9000344B1A6C42F080521A641B6C03F080534E
:103EA0000193019B0125324B1B6813F4807F23D0C3
:103EB000A368012B34D0052B38D02A4B1A6F22F07F
:103EC00001021A671A6F22F004021A67A368002B16
:103ED00036D000F0C5FA0646224B1B6F13F0020FD6
:103EE00048D100F0BDFA801B41F288339842F3D9E3
:103EF0000320C9E00025D6E71D4A136843F4807308
:103F0000136000F0ADFA0646194B1B6813F4807F6E
:103F1000CED100F0A5FA801B0228F5D90320B3E02A
:103F2000104A136F43F001031367CFE70D4B1A6F6D
:103F300042F004021A671A6F42F001021A67C5E7DD
:103F400000F08EFA0646074B1B6F13F0020F11D0DC
:103F500000F086FA801B41F288339842F3D903209F
:103F600092E000BF0038024000004742800E474206
:103F700000700040EDB9A369002B00F08480454A31
:103F8000926802F00C02082A51D0022B17D00022AE
:103F9000414B1A6000F064FA04463E4B1B6813F074
:103FA000007F42D000F05CFA001B0228F5D9032004
:103FB0006AE0384A136C23F080531364DBE7002275
:103FC000354B1A6000F04CFA0546324B1B6813F073
:103FD000007F06D000F044FA401B0228F5D90320E8
:103FE00052E0E369226A1343626A43EA8213A26AD7
:103FF0005208013A43EA0243E26A43EA0263254A6D
:1040000053600122244B1A6000F02AFA0446214B27
:104010001B6813F0007F06D100F022FA001B022873
:10402000F5D9032030E000202EE000202CE0012B09
:104030002CD0184B9B6803F48001E269914201D0B7
:10404000012021E003F03F02216A8A4201D00120D1
:104050001AE0616A47F6C0721A408A4201D0012014
:1040600012E003F44032A16A8A4201D001200BE041
:1040700003F07063E26A93420AD0012004E0012059
:104080007047012000E0002002B070BD0120FBE776
:104090000020F9E70038024060004742F8B5314B94
:1040A0009B6803F00C03042B59D0082B01D02E4839
:1040B000F8BD2C4B5A6802F03F025B6813F4800F86
:1040C0002AD0284B5B68C3F388131E4600275C0187
:1040D0000025E41A65EB0705A90141EA9461A001F6
:1040E000001B61EB0501CB0043EA5073C400A0192B
:1040F00043EB07014B0243EAD053440220461946E2
:104100000023FDF793F8174B5B68C3F301430133BA
:104110005B00B0FBF3F0F8BD124B5B68C3F3881390
:104120001E4600275C010025E41A65EB0705A9017E
:1041300041EA9461A001001B61EB0501CB0043EA59
:104140005073C400A01943EB07018B0243EA90535C
:104150008402204619460023FDF768F8D3E7034898
:10416000F8BD00BF003802400024F40000127A00BD
:10417000002800F09E8070B50446504B1B6803F089
:104180000F038B4209D2CBB24C4A1370136803F071
:104190000F03994201D0012070BD236813F0020F74
:1041A00017D013F0040F04D0454A936843F4E0534A
:1041B0009360236813F0080F04D0414A936843F4D6
:1041C000604393603E4A936823F0F003A068034382
:1041D00093600D46236813F0010F32D06368012B02
:1041E00021D09A1E012A25D9354A126812F0020FF1
:1041F00061D033498A6822F0030213438B6000F0D8
:104200002FF906462E4B9B6803F00C036268B3EB54
:10421000820F16D000F024F9801B41F288339842B7
:10422000F0D9032070BD264A126812F4003FE0D195
:10423000012070BD224A126812F0007FD9D10120FE
:1042400070BD1E4B1B6803F00F039D4209D2EAB2FA
:104250001A4B1A701B6803F00F039D4201D0012016
:1042600070BD236813F0040F06D0154A936823F439
:10427000E053E1680B439360236813F0080F07D005
:104280000F4A936823F46043216943EAC1039360B2
:10429000FFF704FF0A4B9B68C3F30313094AD35C7F
:1042A000D840094B1860094B186800F091F80020BD
:1042B00070BD01207047012070BD00BF003C02406E
:1042C00000380240104B0008440800204C08002031
:1042D000014B1868704700BF4408002008B5FFF77D
:1042E000F7FF044B9B68C3F38223034AD35CD84097
:1042F00008BD00BF00380240204B000808B5FFF79A
:10430000E7FF044B9B68C3F34233034AD35CD840B6
:1043100008BD00BF00380240204B0008074AD368A0
:1043200023F4E0631B041B0C000200F4E06018435C
:1043300040F0BF6040F40030D060704700ED00E016
:1043400030B4164BDB68C3F30223C3F10704042C1B
:1043500028BF04241D1D062D17D9033B012505FA8E
:1043600004F4013C2140994005FA03F3013B13405A
:10437000194300280BDB0901C9B200F1604000F5C8
:10438000614080F8001330BC70470023E6E700F07E
:104390000F000901C9B2024B1954F4E700ED00E027
:1043A00014ED00E00138B0F1807F0AD2064B58606E
:1043B000F021064A82F823100020986007221A6034
:1043C00070470120704700BF10E000E000ED00E002
:1043D00010B504460E4B18784FF47A73B3FBF0F324
:1043E0000C4A1068B0FBF3F0FFF7DCFF68B90F2C44
:1043F00001D9012010BD002221464FF0FF30FFF708
:104400009FFF054B1C60002010BD012010BD00BFA8
:1044100048080020440800204C08002008B5094B3B
:104420001A6842F400721A601A6842F480621A60D4
:104430000320FFF773FF0F20FFF7CAFF00F016F805
:10444000002008BD003C0240034A1168034B1B7862
:104450000B441360704700BF8C49002048080020BF
:10446000014B1868704700BF8C490020704700005E
:10447000124A12F0070F1ED0D11D21F00701C1F51D
:10448000705313440A460E480260002141601344F1
:10449000083B23F007030B48036059601960991A21
:1044A00051601360084B1960084B19604FF00042CF
:1044B000074B1A6070474FF47053E4E7700D00200B
:1044C0007C4900206C0D00207849002074490020B0
:1044D0007049002010B4134B1A6882421BD35968EC
:1044E0005C18A04203D140680144596018464168F5
:1044F0004418A24213D10C4C2468A2420DD0526839
:10450000114441601A6812680260984200D0186035
:104510005DF8044B70471346DEE70460F5E7026080
:10452000F3E700BF7C4900206C0D002070B5044605
:10453000FEF77AFD3A4B1B68BBB13A4B1B681C4235
:1045400063D1ACB1083414F0070F11D024F0070484
:10455000083404F007035BB14FF0500383F3118874
:10456000BFF36F8FBFF34F8FFEE7FFF781FFE4E7E5
:10457000002C4CD02C4B1B689C424AD82B4B1D68FE
:1045800001E02B4615466A68944202D92A68002A3F
:10459000F7D1234A126895423DD01E6808362A6832
:1045A0001A606B681B1B102B10D9281910F0070F0D
:1045B00008D04FF0500383F31188BFF36F8FBFF320
:1045C0004F8FFEE743606C60FFF784FF6A6816490F
:1045D0000B689B1A0B60164909688B4201D214497B
:1045E0000B60104B1B6813436B6000232B60FEF7BE
:1045F000B3FD16F0070F10D04FF0500383F311886E
:10460000BFF36F8FBFF34F8FFEE70026EFE7002663
:10461000EDE70026EBE70026E9E7304670BD00BF76
:104620006C0D002070490020744900207C49002056
:104630007849002080B338B50446A0F1080550F849
:10464000042C164909680A4208D14FF0500383F33D
:104650001188BFF36F8FBFF34F8FFEE750F8080C40
:1046600040B14FF0500383F31188BFF36F8FBFF356
:104670004F8FFEE722EA010244F8042CFEF7D4FC37
:1046800054F8041C064A13680B4413602846FFF7CD
:1046900021FFFEF761FD38BD704700BF7049002063
:1046A0007449002082B0002301930D4B1B68B3F1C5
:1046B000FF3F08D04FF0500383F31188BFF36F8F93
:1046C000BFF34F8FFEE74FF0500383F31188BFF322
:1046D0006F8FBFF34F8F019B002BFCD002B0704750
:1046E0005008002008480068006880F308884FF0F0
:1046F000000080F3148862B661B6BFF34F8FBFF33A
:104700006F8F00DF00BF000008ED00E0DFF80C0055
:10471000016841F4700101607047000088ED00E01D
:104720004FF0807340F8043C21F0010140F8081C70
:10473000054B40F80C3C40F8202C6FF0020340F889
:10474000243C4438704700BFA54600080000000024
:10475000074B19680868B0E8F04F80F30988BFF389
:104760006F8F4FF0000080F311887047AFF3008027
:10477000A80800204FF0500383F31188BFF36F8F18
:10478000BFF34F8F0A4A136801331360012B0DD119
:10479000084B1B6813F0FF0F08D04FF0500383F352
:1047A0001188BFF36F8FBFF34F8FFEE7704700BFD5
:1047B0005008002004ED00E0094B1B6843B94FF09E
:1047C000500383F31188BFF36F8FBFF34F8FFEE762
:1047D000013B034A13600BB983F31188704700BF94
:1047E0005008002000000000000000000000000051
:1047F000EFF30980BFF36F8F154B1A681EF0100F8F
:1048000008BF20ED108A20E9F04F10602DE9090063
:104810004FF0500080F31188BFF34F8FBFF36F8FBD
:10482000FEF718FD4FF0000080F3118809BC1968ED
:104830000868B0E8F04F1EF0100F08BFB0EC108A07
:1048400080F30988BFF36F8F704700BFAFF300801C
:10485000A808002008B54FF0500383F31188BFF378
:104860006F8FBFF34F8FFEF7E7FB18B14FF0805209
:10487000024B1A60002383F3118808BD04ED00E0A9
:10488000084A0023136008490B60084B1B6808495D
:10489000A1FB03139B09013B06490B60072313602F
:1048A000704700BF10E000E018E000E0440800207E
:1048B000D34D621014E000E03A4B1A683A4B9A422A
:1048C00008D14FF0500383F31188BFF36F8FBFF30C
:1048D0004F8FFEE7334B1A68344B9A4208D14FF0A2
:1048E000500383F31188BFF36F8FBFF34F8FFEE741
:1048F00010B582B02E4B1A78D2B20192FF221A70F4
:104900001B78DBB28DF803309DF8033003F05003C1
:10491000284A13700722284B1A6009E0264A1368B8
:10492000013B13609DF803305B00DBB28DF8033070
:104930009DF8033013F0800FF0D11F4B1B68032B41
:1049400008D04FF0500383F31188BFF36F8FBFF38C
:104950004F8FFEE71B0203F4E063174A1360019BCD
:10496000DBB2134A1370154B1A6842F470021A60D6
:104970001A6842F070421A60FFF782FF0024104B61
:104980001C60FFF7C3FE0F4A136843F040431360F7
:10499000FFF7A8FEFEF75EFCFFF784FE204602B09C
:1049A00010BD00BF00ED00E071C20F4170C20F41A9
:1049B00000E400E0844900208849002020ED00E068
:1049C0005008002034EF00E030B595B00025019587
:1049D0001D4B1A6C42F080521A641B6C03F080531A
:1049E0000193019B0295194B1A6842F480421A60A8
:1049F0001B6803F480430293029B3022294608A8D7
:104A0000FBF7CCFF0224089401230B9310230C9393
:104A10000E9408231093A823119312940423139344
:104A200008A8FFF745F905950F23039304944FF465
:104A3000A05306934FF480530793052103A8FFF773
:104A400097FB15B030BD00BF003802400070004039
:104A500008B5FFF7E3FCFFF7B7FFFEF737FE0021CD
:104A60000548FEF773FE03210448FEF76FFEFEF7CC
:104A70009FFA002008BD00BF0C4B0008284B00081F
:104A8000DFF834D0002103E00C4B5B584350043175
:104A90000B480C4B42189A42F6D30B4A02E0002313
:104AA00042F8043B094B9A42F9D3FEF7DFFEFBF7CD
:104AB000F9FBFFF7CDFF704700000220384C0008DB
:104AC00000000020540800205408002094490020D1
:104AD000FEE70000024B13B10248FBF7C3BB70476F
:104AE0000000000071020008F8B500BFF8BC08BC67
:104AF0009E467047F8B500BFF8BC08BC9E4670479C
:104B00000800002049444C45000000002A00000035
:104B1000000000000000000001020304060708096D
:104B200000000000010203044150505F4D41494E16
:084B300000000000430000003A
:104B380008B10181B0B000840000000008B1018113
:104B4800B0B000840000000008B10181B0B000845A
:044B58000000000059
:104B5C0000C7FF7F0100000070CAFF7FB0A9028070
:104B6C0008CBFF7FB0B0A88058CBFF7F01000000BE
:104B7C0064CBFF7FB0B0AA809CCBFF7FAE71B280BC
:104B8C006CCCFF7F0100000068CCFF7FAB3F38800E
:104B9C00C0CCFF7F01000000CCCCFF7FB0B0AA805E
:104BAC0008CDFF7F01000000BCCDFF7FAB0EB280B3
:104BBC0024CEFF7FB0AF0A80ECD0FF7F0100000055
:104BCC00F0D0FF7FAB3F048030D3FF7F01000000AB
:104BDC000CD5FF7F0084048020D5FF7F01000000EE
:104BEC001CD5FF7FB0AD0480E4D7FF7FB0A8038055
:104BFC0004D8FF7F44FFFF7F08D8FF7F48FFFF7F6B
:104C0C0014D8FF7F01000000B4FDFF7FB0A9148011
:104C1C0034FEFF7F18FFFF7F5CFEFF7F010000006A
:084C2C00D54A00082D02000822
:044C3400050200086D
:104C3800080000200000000000000000F40200202E
:104C48005C030020C40300200000000000000000F6
:104C5800000000000000000000000000000000004C
:104C6800000000000000000000000000344B0008B5
:104C7800000000000000000000000000000000002C
:104C8800000000000000000000000000000000001C
:104C9800000000000000000000000000000000000C
:104CA80000000000000000000000000000000000FC
:104CB80000000000000000000000000000000000EC
:104CC80000000000000000000000000000000000DC
:104CD80000000000000000000000000000000000CC
:104CE80001000000000000000E33CDAB34126DE669
:104CF800ECDE05000B0000000000000000000000D2
:104D0800000000000000000000000000000000009B
:104D1800000000000000000000000000000000008B
:104D2800000000000000000000000000000000007B
:104D3800000000000000000000000000000000006B
:105068000000000000000000300400203004002090
:1050780038040020380400204004002040040020A8
:105088004804002048040020500400205004002058
:105098005804002058040020600400206004002008
:1050A80068040020680400207004002070040020B8
:1050B8007804002078040020800400208004002068
:1050C8008804002088040020900400209004002018
:1050D8009804002098040020A0040020A0040020C8
:1050E800A8040020A8040020B0040020B004002078
:1050F800B8040020B8040020C0040020C004002028
:10510800C8040020C8040020D0040020D0040020D7
:10511800D8040020D8040020E0040020E004002087
:10512800E8040020E8040020F0040020F004002037
:10513800F8040020F80400200005002000050020E5
:105148000805002008050020100500201005002093
:105158001805002018050020200500202005002043
:1051680028050020280500203005002030050020F3
:1051780038050020380500204005002040050020A3
:105188004805002048050020500500205005002053
:105198005805002058050020600500206005002003
:1051A80068050020680500207005002070050020B3
:1051B8007805002078050020800500208005002063
:1051C8008805002088050020900500209005002013
:1051D8009805002098050020A0050020A0050020C3
:1051E800A8050020A8050020B0050020B005002073
:1051F800B8050020B8050020C0050020C005002023
:10520800C8050020C8050020D0050020D0050020D2
:10521800D8050020D8050020E0050020E005002082
:10522800E8050020E8050020F0050020F005002032
:10523800F8050020F80500200006002000060020E0
:10524800080600200806002010060020100600208E
:10525800180600201806002020060020200600203E
:1052680028060020280600203006002030060020EE
:10527800380600203806002040060020400600209E
:10528800480600204806002050060020500600204E
:1052980058060020580600206006002060060020FE
:1052A80068060020680600207006002070060020AE
:1052B800780600207806002080060020800600205E
:1052C800880600208806002090060020900600200E
:1052D8009806002098060020A0060020A0060020BE
:1052E800A8060020A8060020B0060020B00600206E
:1052F800B8060020B8060020C0060020C00600201E
:10530800C8060020C8060020D0060020D0060020CD
:10531800D8060020D8060020E0060020E00600207D
:10532800E8060020E8060020F0060020F00600202D
:10533800F8060020F80600200007002000070020DB
:105348000807002008070020100700201007002089
:105358001807002018070020200700202007002039
:1053680028070020280700203007002030070020E9
:105378003807002038070020400700204007002099
:105388004807002048070020500700205007002049
:1053980058070020580700206007002060070020F9
:1053A80068070020680700207007002070070020A9
:1053B8007807002078070020800700208007002059
:1053C8008807002088070020900700209007002009
:1053D8009807002098070020A0070020A0070020B9
:1053E800A8070020A8070020B0070020B007002069
:1053F800B8070020B8070020C0070020C007002019
:10540800C8070020C8070020D0070020D0070020C8
:10541800D8070020D8070020E0070020E007002078
:10542800E8070020E8070020F0070020F007002028
:10543800F8070020F80700200008002000080020D6
:105448000808002008080020100800201008002084
:105458001808002018080020200800202008002034
:105468002808002028080020FFFFFFFF0000020096
:10547800050000000024F4000100000010000000F6
:04548800AAAAAAAA78
:0400000508004A8124
:00000001FF
